:020000040000FA
:1000000000400020BD620100F9620100FB620100B6
:1000100000000000000000000000000000000000E0
:10002000000000000000000000000000FD62010070
:100030000000000000000000FF62010001630100F9
:1000400003630100B1700000216701000363010038
:100050000363010000000000319D01000363010003
:100060000153010003630100319F0100036301009C
:1000700003630100036301000363010003630100E4
:10008000036301007D6C0100036301000363010051
:1000900003630100459C01005D9B01003D5401008C
:1000A0004D54010003630100000000000000000047
:1000B0000000000000000000000000000000000040
:1000C00010B5064C2378002B07D1054B002B02D02E
:1000D000044800E000BF0123237010BD400200204F
:1000E0000000000084B50300044B10B5002B03D0C2
:1000F0000349044800E000BF10BDC04600000000F6
:100100004402002084B50300164B002B00D1144B91
:100110009D46402292029A1A924600218B460F4633
:100120001348144A121A2AF0A1FA0F4B002B00D0E0
:1001300098470E4B002B00D0984700200021040068
:100140000D000D48002802D00C4800E000BF20F050
:1001500099FA2000290028F09EF81FF06DFFC04694
:100160000000080000400020000000000000000027
:1001700040020020580B002000000000000000009A
:1001800010B50F4827F0A9FF002809D00D4828F026
:1001900001F80D4B1B68984203D10C4B9A6E1A6301
:1001A00010BD3F210A4A138801330B4009490988D1
:1001B0008B42F5D01188084C13806054F0E7C0469C
:1001C000C8040020080500205C020020000A00206E
:1001D0002C0900202E090020360900200022094B9E
:1001E00010B51A80084B094909481A8027F07AFF90
:1001F0000122084B524208481A6027F0CDFE074BF7
:10020000986610BD2C0900202E09002081010000F5
:10021000C80400205C02002028140300000A00200B
:1002200010B50400431C03D0034B986E15F06CFC12
:10023000024B1C6010BDC046000A00205C0200207A
:10024000034B1888034B1B88C01A431E9841704704
:100250002E0900202C090020084A094B1088198813
:10026000884201D130BFF9E713880649C85C3F21B5
:10027000138801330B4013807047C0462E090020BD
:100280002C0900203609002070B504004518AC4246
:1002900005D02178024827F072FF0134F7E770BDDE
:1002A0000805002070B504004518AC420DD0237835
:1002B000064E0A2B03D10D21300027F060FF217874
:1002C000300027F05CFF0134EFE770BD0805002027
:1002D00070B504000825002C08D02100082C00D996
:1002E00029000348641AFFF7CFFFF4E770BDC0464A
:1002F0004327030070B5050004000826002C08D031
:100300002100082C00D931000448641AFFF7BCFF13
:10031000F4E72800FFF7DCFF70BDC0463A27030072
:1003200070B5041E13D00A4D280017F069FB24187D
:100330000600A04205D930BF280017F061FBB0428B
:10034000F9D830BF280017F05BFBA042F9D370BD8D
:100350007404002070B506000D00002814DD00298B
:1003600007DD154819F0BEFE0124B04209DB002468
:1003700007E00100C020000619F0B4FE0124A842E5
:10038000F5DDE4B2200070BD002907DDC0200006C5
:1003900019F0A8FE0124B042F3DCE8E70024A042F3
:1003A000F0D00100044819F09DFE0123A84200DCB2
:1003B000231CDCB2E6E7C046FFFFFF3F10B588B064
:1003C00001AA6946040015F0E1FB009B022B2AD923
:1003D00002AA322104A808F03BF8019B13495A688D
:1003E00002A822F0DFFC20000FF01AFE104BC268BA
:1003F0009A4210D123680F495A6802A822F0D2FC11
:10040000E368002B07D05A68002A04D000229968BC
:1004100002A80FF01DFE04A824F017FE21F0BDFD78
:1004200004A824F0C3FD08B010BDC046792703001E
:10043000315901008227030070B5050090B00028F3
:1004400004D11F4820F04EFE10B070BD04A815F076
:100450000DFD041E19D12E68290001A8012204F007
:10046000E1FC23002200310001A80CF039F804005F
:100470000320FFF7D5FE200024F0C9FF01204042F1
:10048000FFF7CEFE15F008FDDEE701204042FFF742
:10049000C7FE05990B480FF0FFFD05980FF0C0FD52
:1004A0000949040014F072F90028CDD10749200051
:1004B00014F06CF90028C7D10598FFF77FFFC3E758
:1004C0004C27030050C30200A416030028140300A5
:1004D00037B52A4B01AA1A6003F0D2FBE120C00015
:1004E00003F0E2FB2649274812F0E2F809F0BCFAD3
:1004F000FFF774FE0DF024F800F096FC0023224C68
:10050000224D63672B78012B0BD1F8239B021A78BD
:100510004D2A1BD15A78502A18D159881C4821F0ED
:100520005CFD2B78002B25D114F018FC0028F8D0A6
:10053000184821F029FD0822002117482AF096F8D2
:1005400000239034236024F05EFF37BD0023072191
:100550001A00124812F042FE002802D021F047FD96
:10056000DFE7A72001220E4940000AF071F924F0CC
:1005700078FFD6E714F052FCD8E7C04660020020AE
:100580000038002058130020000A00202602002016
:1005900004E003008E2703006C0A00208627030076
:1005A0004CFE020007B512F00DF9054B01A81968C1
:1005B000091A890812F0C0F812F018F907BDC046F0
:1005C0006002002030B507240278084DA2431400D1
:1005D0000222224302707F22039C41602240D40009
:1005E000028883602A402243028030BD07FCFFFF5F
:1005F00010B50B00072401782340A14319437F2342
:10060000017004990A4C0B40D900038842602340D2
:100610000B430380039B04685905064BC90A23401A
:100620000B430360029B8360059BC36010BDC04603
:1006300007FCFFFFFF03E0FFF0B5204B8BB004ACDD
:1006400020C9013800930194062312F08BFFE06863
:100650001B4EB04225D105271A4BDF572069B04207
:1006600023D1194B5B795BB203936069B04220D10F
:100670000522164B9A56012304355B4200930399D9
:100680003B00280016F04CF90023A268616828009E
:1006900016F0CCF82800049916F000F930000BB0E1
:1006A000F0BD24F009FE0700D8E724F005FE039012
:1006B000DBE724F001FE0200DDE7C04634BA0200A9
:1006C00010C3020024F5020034F502002CF50200EC
:1006D00070B586B006000122080003A90FF042FFA2
:1006E000039D2C00049A631B01929A4205D921783C
:1006F000301D16F0FDF90134F4E7014806B070BD75
:1007000010C30200F0B5140089B0012206000800F1
:1007100002A90FF027FF20000024022205A9029F52
:100720000FF020FF059D039B0193A34206D9395D7D
:10073000301D16F0DDF928550134F4E7014809B001
:10074000F0BDC04610C30200F0B5070087B048688E
:100750000C000E680FF04CFD010002A824F012FC02
:100760000025032F03D1A0680FF042FD05000024EF
:10077000039B0193A34208D9301D290016F0B8F954
:10078000049B185501930134F2E702A9024804F0D2
:1007900019FE07B0F0BDC046C8CF0200F0B58027F3
:1007A00087B02B4D02907F422C78002C1CD063B276
:1007B000002B12DA6E787C40E4B2002E14D0013C9B
:1007C000E4B2FF2C02D101350135EDE704AB981DF1
:1007D00001210670FFF766FDF1E704ABD81D01218A
:1007E0000470FFF75FFDEFE705270298FFF798FD1C
:1007F0000124BC4227DA0025164E220029003000D1
:1008000015F05CF86B4601901B79002B15D0631E28
:100810001A0029003000039315F050F8031E0CD184
:1008200022002900300015F013F8FF22019B290057
:1008300013403000621E15F00BF80135052DDBD199
:100840000134E4B2D5E7013F002FCED107B0F0BDAF
:100850009C2703002C00002010B5C820FFF79EFF46
:10086000004810BD10C30200F0B5160042688FB0FA
:10087000944606938369CA6805938B6882606344D3
:100880005A1C42601A78040001929A1C42605A78FD
:1008900004910092DA1C42609A78002102921A1D9B
:1008A0004260DB789C4A039303001833C360059BC6
:1008B0001C309A1893000793C3182361079BB50057
:1008C0000C331A00089329F0D1FE149B009A5B198F
:1008D0000B93059B9B1A029A09939D1AAB1D009AD4
:1008E0009B00E7180123B24264D2019A1A4207D151
:1008F0003300009A89498A4815F0A6F815F0D1FA14
:10090000009B05359900149BAD005918009B651993
:10091000F01A0DF0EFFD009E043F68600022964241
:1009200000D070E0069B002B03D1019B1B0700D475
:10093000D8E002230026019A1A400A92B24204D05B
:10094000069826F07EF9060038600027A3680B9D04
:100950000893069B9F425FD1099B049807339B0035
:10096000E1180A00039D0C30002D00D083E0039AAB
:1009700092008918079A2832A2188A4200D983E087
:100980001C3B0693009B089A9B00D3180793029B7D
:100990009D4200D282E065680DA825600D9521F08A
:1009A00079FB2D186E1C2D78FF2D00D0A8E0666015
:1009B0000FB0F0BD019A1A4205D00535AD00594B74
:1009C0006519043F6B60069B002BA7D1019B1B0799
:1009D000A4D4009B039A9A1AB24212D8009A039B9D
:1009E000991A32008900009B9A4297D29300049D85
:1009F00058182818089D0069EB1AE318986101320D
:100A0000F1E7330076E7149908989300C958C31AA0
:100A1000E3189961013282E7009B029800221B18BB
:100A20009C462968944507D80A9B002B1ED13E4955
:100A30003B4827F0BEFA61E7089B900018588842AF
:100A400012D1059B013B9B1A9B00E318DA69002A2F
:100A500005D0CA083549324814F0F6FF4EE76A68F7
:100A6000DA610137083574E70132DBE76A68300084
:100A700026F020F9F5E71668002E02D1AE0086595F
:100A80001660013D04326FE7081D0968002903D193
:100A9000121A92102649DEE701006EE7069AAB00B3
:100AA000D71AE719BA69002A16D1082000996E18DA
:100AB0000899B6008E190799C958019B03420DD0B9
:100AC000039B049804339B001858043003F08EFBFA
:100AD000002803D04368BB61013558E732681549E7
:100AE000D208B8E7029B002B01D01349A0E7019B75
:100AF0009B0700D44FE7029826F0A3F838604AE736
:100B0000ED43059BED18AD006519E86914F058FB3D
:100B1000E861350046E7C046FDFFFF3F3A28030085
:100B2000E01603004CFE0200A22803007328030015
:100B3000CB280300FD2803002D2903007FB50B00FF
:100B4000012803D1002118680FF09CFA102102A897
:100B500024F001FA0A4902A825F0F3FD039B019352
:100B6000002B06D1042804D1064827F015FA15F009
:100B700098F902A9044804F025FC07B000BDC0465E
:100B8000BBB003007812030040FD020073B501A959
:100B900005F0FCF8019B06001849502B16D8802060
:100BA000400024F0E5FB164C0500231DD867002308
:100BB000019A9A420FD15B232800AB540CF0A0F9A4
:100BC0002B0000280BD104340E49E0670E4827F0B3
:100BD000F0F915F066F9F15CE9540133E9E75A1BC5
:100BE0000133591E09789B29F9D12900074823F0C0
:100BF000A6FE00230434E36776BDC04663290300E4
:100C0000000A0020722903005817030040FD02006B
:100C1000F0B58BB00600080011001A0010AB1F7869
:100C2000334B05AD01950093052312F09BFC9120F9
:100C3000000124F09DFB2F4B04A9D867059B47605A
:100C400043706B682C4F0370AB6804008370EB68D3
:100C5000C3702B7C30003B6005F098F80025274BD3
:100C600003900C201D6024F083FB254B06000360DD
:100C700008F02EF8B06008F02BF8224B224A1860DA
:100C8000224B11001D70224B70601D70214B3000F3
:100C90001D602B0007F0F0FE2000049A039926F057
:100CA000B7FE200013F0ECF80400A8420AD107F0C8
:100CB000F1FD104B1848DC67184B196827F079F9DB
:100CC00015F0EFF80122164B1A7007F0FBFF002811
:100CD000FBD1144B0433D8673B68002B04D00D4B79
:100CE0001148196820F04EF907480BB0F0BDC04616
:100CF00028BB0200040A0020D8020020680200205D
:100D000088BB02006402002010C3020078090020A2
:100D1000760900206C0200205817030018000020FC
:100D200077090020000A00205429030000220D4901
:100D300010B50B78DBB2934210D10B4A1478002C1B
:100D400002D001240C701370084B1B78002B07D0C5
:100D5000074A136820331360064B1A68100010BD51
:100D60008268FBE7760900207709002078090020D7
:100D70006802002064020020D2235B005843134A1B
:100D8000F0B51368000C834206D9114C2368013377
:100D900023601368203B13601F23050001270D4EBD
:100DA0009D431468A5420BD803401A1D202A00D980
:100DB0002022094C2468934204D3084B1860F0BDEC
:100DC0003770EEE7E51829710133F4E76802002077
:100DD0006C020020780900206402002070020020CC
:100DE00010B50024064B1C7010F0DCFF14F0E8FB7B
:100DF00011F00CFB03F07AFE024B1C7010BDC046D4
:100E00007B09002079090020064B10B51A680823D9
:100E1000D16C0B43D36426F0ACFC06F0EFFAFFF77D
:100E200057FBFCE74408002010B50C4818F086FA80
:100E300008F0F8F812F0CEF808F050FD0CF0A2FF20
:100E4000074827F0C6F9074814F00EFA14F0EAF93B
:100E50000CF0A6FF10F0D4FE10BDC04678050020AF
:100E600080040020E10D000070B51500040021F0A1
:100E700089F92A000249200021F042F970BDC046DC
:100E80006721020070B543790D000024032B06D9B9
:100E9000836A074C9200E41AC369D358E41803210B
:100EA00021F061F9447024120570847070BDC04651
:100EB000FD7F0000F7B5002304006171836083713A
:100EC000E260036101330F0015004361032906D876
:100ED0000121836949429A00C06929F0C7FB0023B8
:100EE000A36223622A8C6B8CD218002A00D10132B3
:100EF000384E2000310021F003F9AA8C3100200087
:100F000021F0FEF8E3682000197E21F025F9E3685E
:100F10002000997E21F020F9E3682000197F21F05C
:100F20001BF9E3682000997F21F016F9042F27D1DF
:100F3000636A226A31009A1A200021F0E1F8310038
:100F40002A69200021F0DCF83100EA68200021F055
:100F5000D7F800262B8DB34217DCFF21200021F0AB
:100F600011F9042F35D16A8BAB8B0237D31801935B
:100F70000023019A9A422CD02A8D0021009223E06E
:100F80000221200021F0DBF8D9E7EA6AF300D31848
:100F90001A78032A03D19978200021F0F3F801365A
:100FA000D8E70126E86ACA008218507830420AD091
:100FB0005088984207D15268D200606B99003A433A
:100FC0000A500133D5E70131009A8A42E9DC022256
:100FD000F2E7F7BD3F21020013B543790400012B6E
:100FE00020D08268002A03D01649174821F0DAFE83
:100FF0000021200021F0B0F86379032B13D1226A7D
:10100000D01C9843A36A20626062E362C01824F097
:10101000C1F9E3682063588B9B8BC018800024F0D3
:10102000B9F9606313BD042BFCD1E068636AE26A1E
:10103000216B9A18037E00934069636BFFF7C2FA35
:10104000F0E7C0468929030050C30200F7B5224BE0
:101050000600A8331B680191022B0DD844698C420D
:101060000AD2836A02690C1B9D1A23002B4304D108
:10107000B36A3361019B7361F7BD0095062C13D8E9
:101080001F2D01D91F2300932700032C00D903270C
:101090000121300021F053F8009A7B0113430370C3
:1010A000009BE41BED1AE0E70F2D01D90F230093FD
:1010B0000A4B27009C4200D91F000221300021F07A
:1010C0003EF870223B0900991340F03A0A4313435B
:1010D00003704770E4E7C046000A0020FF070000E5
:1010E00070B50D000121040021F082F80F2D14D0FD
:1010F000102D17D010210E2D10D01721200021F017
:1011000041F80322A36A042103339343A36220001E
:1011100021F029F8044B036003E01121200021F0A5
:1011200031F870BD1221F9E7ECD30200F8B5114F88
:1011300005000C0016000F40002A0ED1110021F00E
:1011400057F8230403D53221280021F01BF83A0078
:1011500035212800FFF796FEF8BD3A004621FFF73B
:1011600091FE7F23210A99433143C9B2280021F01F
:1011700009F8F1E7FF7FFFFFBFF34F8F024B034AF0
:10118000DA60BFF34F8FFEE700ED00E00400FA05E0
:101190000120024B1B685B00184370475C0800206D
:1011A00001220F4B10B51A600E4A51680029FCD07D
:1011B00000215160A122D200985801225A601BF0F0
:1011C0005DFE0022084B1BF069F81BF0E3FE0323D1
:1011D000020002209A43054B1043C01810BDC046C0
:1011E00000C00040FCC000400000D03F00008080F4
:1011F00010B5C30708D483070ED10368094A934288
:1012000002D0094A934207D10EF0F2FF002801DD17
:10121000FFF786F8054810BD0FF04EF81AF06EF88B
:10122000F4E7C04640E20200E0E6020010C302001C
:10123000F0B50F000A2485B001901C491C4826F027
:1012400031FEFA2000258000FFF76AF8019BAB42CF
:1012500003D038680EF0CCFF05002800210019F0FB
:1012600027F803AE3031B1702800210018F03AFFA2
:10127000210019F01DF8303171702800642118F038
:1012800031FF210019F014F8002530313170705D04
:1012900022F06DF90100064826F004FEFA2001351F
:1012A0008000FFF73DF8032DF1D1C6E760BD0200D5
:1012B0002C000020F8B503780400002B1BD0402B35
:1012C0001CD1012000231E001D0019002278002AD5
:1012D0003CD1013200290FDC002D0DDC002E0BDC8F
:1012E000033B934208D9013C23785C2B04D00028AF
:1012F00001D00A2B00D100221000F8BD3E4921F098
:101300006BFB0028DDD13D49200021F065FB002862
:10131000D7D13B49200021F05FFB0028D1D13949CA
:10132000200021F059FB0028CBD13749200021F0C3
:1013300053FB0028C5D13549200021F04DFB002882
:10134000BFD13349200021F047FBBBE76778BC469B
:10135000272A11D1002B4CD0032B09D1272F05D1DF
:10136000A278272A04D10234243AD31A0134ADE7F3
:10137000012BFBD80122F8E7222A12D11A000427F8
:10138000BA430AD16246222A05D1A278222A02D182
:1013900002343A00E9E7002B01D0022BE6D1022209
:1013A000E3E75C2A08D1272F01D0222F04D11A00AD
:1013B000571EBA41A418D9E7002BD7D15B2A12D007
:1013C00006D8282A0DD0293A57425741C91BCDE7E4
:1013D0007B2A0AD07D2A0AD05D3A57425741ED1B3D
:1013E000C4E70131C2E70135C0E70136BEE7013E7F
:1013F000BCE7272FBED1B3E7FA680300B929030081
:10140000BF290300C32903005D4B03005DB4030043
:1014100051AE0300F0B505008BB046180492079357
:101420000296029B5C1EA54201D9029510E020782D
:1014300001F068F8002801D00294F2E7207801F06A
:101440006DF80028F8D123785F2BF5D02E2BF3D040
:10145000704B1D68029CB44202D223782E2B1BD104
:10146000029BE31A0193B4423BD3002426002700D9
:101470000394AB68A34250D8039B002B2ED0012BC2
:1014800003D0019B9E4200D8C0E0019B079AFB1845
:101490001360019BF01A22E00134DCE70137AB68EE
:1014A000BB421BD9FB000393EB68FA009858002855
:1014B000F4D00428F2D009A904F068FC099B019A31
:1014C00001009342EAD1029829F03DFA0028E5D1C3
:1014D000EB68039A9B185868002804D100200BB0D1
:1014E000F0BD0027DBE7032318420CD103684A4A0A
:1014F000934205D123F069FB0500631C0293A9E721
:10150000464A934201D00EF08BFD856B002DE5D04D
:10151000434B2A689A42F0D0E0E7EA68E300985823
:10152000002824D0042822D009A904F02FFC099B0C
:10153000019A06900593934219D30100029829F06D
:1015400002FA002813D1019B002F08D1059E069FA7
:101550000AE0069AF95CD25C91420AD101339E42BC
:1015600002D3059A9A42F4D2039B013303930134C8
:101570007FE71E00F8E7039BEA68DB009858002825
:1015800036D0042834D009A904F000FC099B019A44
:101590000590069393422BD30100029829F0D3F9CA
:1015A000071E25D133000F220F33DC171440E41837
:1015B00024112401A41B012C00DC1034069A3319D9
:1015C0009B18402B0BD9059A1649049821F0EAFB89
:1015D000099E0DE01449049821F020FB0137BC421C
:1015E000F8DC0599049821F019FB099BF6183619C7
:1015F000039B01330393AB68039A9342BBD80B4917
:10160000049821F00BFB0120404268E700234026AC
:101610000393F0E7000A0020B8D20200FC0D03009B
:1016200074000300B5290300D83B030026610300C2
:1016300010B5034A0349044821F0B4FB034810BD28
:101640009F2A0300B629030050C3020010C3020002
:1016500010B5034A0349044821F0A4FB034810BD18
:10166000C7290300B629030050C3020010C30200BB
:101670000523020070B5094C094D20684343094811
:101680009B189B0018582B682260C0180F23194024
:1016900009012860FFF770FB70BDC046740200208E
:1016A000E00200205CBE0200A839030000B508007B
:1016B00006292ED818F078FC040A10161B212800E1
:1016C0009A18E223DB00D218107800BDC4329200D1
:1016D000D05C8006800EF8E7C4329200D05AC00475
:1016E000400EF2E7C4329200D0580003F8E7C4324B
:1016F00092009A1890780009E7E7C43292009A188D
:10170000D0780007000FE0E7C43292009A18D07832
:10171000F1E7024B024A00201A60D6E718000020C9
:10172000E32B0300A83910B504000800062949D8A6
:1017300018F03AFC040A141F2A343F00E221A218D0
:10174000C9005218137010BD3F210B401800C4325D
:101750009200135D8B4303431355F4E77F21C4329A
:10176000920019401948135B890103400B4313533E
:10177000E9E77F21C432920019401059144B490304
:1017800003400B431351DEE70F20C4329200A2182E
:101790001901937803400B439370D4E70F210B405A
:1017A0001800C4329200A218D3788B430343D3703D
:1017B000C9E70F20C4329200A218D1781B01014062
:1017C0000B43F4E7034B044A1A60BCE73FE0FFFF1A
:1017D000FF1FF0FF18000020012C0300F0B5D2B26B
:1017E00085B00E000293072113000B40013BDBB2D2
:1017F000042B02D9294C2A4D25608A431F02002A56
:1018000024D1284B3578C45C274B2409E443E4B247
:101810002D1BDB19EDB2039308276319039ADBB282
:10182000D35C5A00D2B25BB20192002B33DA1A2198
:101830000320013FFFB2FFF71BFF019B002FF0D1F8
:101840000134E4B2002CE7D135701AE0D4431749D3
:10185000E4B2CE5C0825144B1B19DB5D5A00D2B2F2
:101860005BB20192002B0FDA05210220FFF700FF87
:10187000013DEDB2019B002DF0D10134E4B2002C0A
:10188000E8D1029805B0F0BD31000120FFF7F0FE6D
:10189000002EE9D0ECE706210420CAE7180000205A
:1018A000EE2B03001907000079310300D437030041
:1018B0000022F0B505000F00FF200F248BB008AB0D
:1018C000654EDA710100C431890069188B781A09F4
:1018D000B25C234012011343CA788B7013071B0FAD
:1018E000F35CA243234013431A09B25C2340120164
:1018F0001343CB700138E5D2E223DB00EE5CB30882
:10190000F31ADBB20493554B1B68002B0BD0E22279
:10191000C4218120D200890000013B00AA18691867
:10192000281807F03DFE00244823029403930194F5
:10193000009481222B1912019B181B781800059323
:101940000723984320D008A92300059A07312800CF
:10195000FFF744FF0230C4B2023FFFB2002F78D03D
:101960002B780393013EF6B2002E47D1E2222B19C9
:10197000D2009B181E78B308F31ADBB2049300233D
:10198000029301930093D4E7354B009A9C469A5CEE
:101990002300C4339B00EB18997809090A433149A5
:1019A0008A5C019907926246DB78525C1907090F3D
:1019B0000A432C491B098A5C2B490692029A8A5CCD
:1019C00006991343079A8A182649C95C0123891886
:1019D000FF2A00DC031CC918882309061B06C91846
:1019E000090F0020FFF744FE039B013BDBB203938A
:1019F000002BB7D10134E4B2013FAEE7049B013BB9
:101A0000DBB20493002B02D1059B002B18D12200DE
:101A1000C4329200535D00999B069B0ECB18DBB23B
:101A20000093535B0199DB045B0ECB18DBB201938F
:101A30005359029A1B035B0ED318DBB2029378E76B
:101A400008A92300059A07312800FFF7C7FE040004
:101A50008CE70BB0F0BDC046FD2C0300D80200207F
:101A6000C9360300D52E030079300300064B1B5CFA
:101A7000002B05D0054B185C4843C011C0B270471D
:101A8000034B185CFBE7C046253003009E2E030085
:101A90005E2D0300064B1B5C002B05D0054B185C2C
:101AA0004843C011C0B27047034B185CFBE7C04607
:101AB00025300300D9370300AE2D0300F0B5037ABB
:101AC0008DB004007F2B00D158E1030007000025F2
:101AD0000933FF330837099301953E787F2E00D0F4
:101AE00087E000230693019306998B00E318039384
:101AF0001A7A481C1B7BC0B206907F2B00D11CE1D8
:101B00009F49CE5C8D5C9F49AE4200D0F2E08D5C77
:101B1000CB5C0493039B597A019B5918CBB2019378
:101B2000049BEB18DBB20793023B1B06DCD4A8270F
:101B3000019B5D1BEBB20593A82F00D0E2E0039B55
:101B4000039A5B7A527B5B085208991802910199BB
:101B500001988A18E221C31AD2B2DBB2C900A218D6
:101B6000E31852185B18157818782D1AEDB27F22F9
:101B70002B006DB293430893EB17E8185840029975
:101B800018F096FB2800CBB20299099318F0AAFA34
:101B9000059A00251600C3B20A93029B9B18DBB27C
:101BA0000B93320039002000FFF77EFD0A9B0136BF
:101BB0000B9AC018F6B2C3B2964200D1B7E0099AA8
:101BC000AD18029AEDB2AA420DD8AD1A20216A468C
:101BD00052181278EDB252B2002A00DAA5E0002BBA
:101BE00001D00133DBB2320039002000FFF79AFD4B
:101BF000D7E7012E78D12B003100019A200020F088
:101C000006FFBA78604BA1789B185B78300001938F
:101C1000FB780893FFF72AFF3F23E1780340300069
:101C20000293FFF737FF7F22584B9B5D1A40584BBA
:101C300003929A5D0F231A400492564A925D1A400D
:101C40000592554A925D1A4006923F22534B9B5D86
:101C500007937B78EB18DBB20A93029B1340029345
:101C60007F23184083019C462A003F21C432920002
:101C7000135D0F268B4302990B431355135B4849A1
:101C80000B4061460B431353039B10595903454BBB
:101C900003400B430498190C3140000113510843D1
:101CA000A21890701B0E0598B343069903430901CF
:101CB0001E400E43D670694681226319097F1201C6
:101CC0009A181170E222D2009B180899019A0135E6
:101CD00052181A700A9BEDB29D42C5D1099B043778
:101CE000BB4200D0F9E6FCE6022E8AD12B00019A15
:101CF000FF2183E72C48AE4201D9C55C08E78D5C23
:101D0000835C06E7049B019A39009A18D2B220003E
:101D1000FFF7CAFC059A050039002000FFF7C4FC54
:101D2000079B2D1AEDB2029321E7013B5AE70137D9
:101D3000FFB2AF2F00D0FFE6D6E60231890061186E
:101D4000019B497859186368C9B2002B13D1E2236B
:101D500081221648DB001201E318A518001B1A188F
:101D6000C4329200125D1E789206D20EB21A1A7018
:101D700001339D42F3D12000FFF79AFD0DB0F0BD75
:101D80000E2D0300D52F0300C9370300FE2D0300DD
:101D90000D2C03005D2C0300AD2C030079360300ED
:101DA0003FE0FFFFFF1FF0FF4E2E0300F0F8FFFFA4
:101DB000014B58687047C046000A0020014B186864
:101DC0007047C046000A0020F0B5194E87B033684E
:101DD000050000200C00019324F033FF30600090D8
:101DE000206823F014FB019B07003360114E022D85
:101DF00003D0A0680EF014F90600210063680831D2
:101E0000A81E03930CF076FB009B04900593002220
:101E100003AB0321300007F03BFF074B04009F4258
:101E200003D00100380025F0EDFF200007B0F0BD21
:101E3000000A0020FC0D030010C3020010B508F0DA
:101E400021F80400200008F069F8002801D10448B6
:101E500010BD0EF00BFB0028F4D10248F8E7C04695
:101E6000D8E60200D0E6020010B508F00BF8040036
:101E7000200008F053F8002801D1044810BD0EF0EE
:101E8000F5FA0028F4D00248F8E7C046D0E6020090
:101E9000D8E6020007B5044B0190002269460220F3
:101EA000009304F0BFFC0EBD0604000010B50EF058
:101EB0003BF9034B002800D1024B180010BDC0466F
:101EC000D8E60200D0E6020037B50EF091F901AB7A
:101ED0007F2806D8012118700122180003F0A8FA03
:101EE0003EBD1F49820988420BD8402149420A431E
:101EF0001A703F2202408020404210435870423105
:101F0000EAE7184C010BA0420ED82024644221437A
:101F1000197080215F344942224020400A43014326
:101F200099705A700321D7E70F4CA04212D81024A1
:101F3000850C64422C431C703F2580242940644258
:101F40002A40284021432243204359709A70D87078
:101F50000421C1E70549064826F02BF813F0A1FF3C
:101F6000FF070000FFFF0000FFFF10001038030014
:101F70005817030010B5020002490A2008F00EF8B5
:101F800010BDC046BE04000010B5020002490A2080
:101F900008F004F810BDC0463E050000F0B585B05D
:101FA000019204000D00002230490198029302F0D2
:101FB0001DF90090002801D043680093012C16D031
:101FC000A4002B19002427000193019B9D4223D0DC
:101FD000009B2E68002B04D03100180023F01EFA5D
:101FE0000600002C39D137002C680435EDE70024B9
:101FF000286807F047FF27000390039807F08EFF3B
:10200000051E0CD1002C07D122001949019802F0BD
:10201000EDF800281BD04468200005B0F0BD009BFF
:102020002E00002B04D02900180023F0F7F9060039
:10203000002C09D03A003100029807F0AFFF0D4B99
:10204000984201D025003E002C003700D5E70A4910
:102050000A4825F0AEFF13F024FF3A003100029841
:1020600007F09CFF034B9842BFD1BCE7D6060000A7
:102070001E050000D8E6020031380300581703009F
:1020800037B501A9050003F081FE1E4B04002B406B
:10209000062B05D0AB072AD11B4B2A689A4226D1C2
:1020A0000199200020F08BFD0190012822D1207899
:1020B00043B2002B04DB012023785B0018433EBDB4
:1020C0007F23013418403F3B034208D13F2223784D
:1020D00019009143802905D024F08EFBEFE7984347
:1020E0005B10F1E78001134001341843EFE7019BD7
:1020F000012BE0D0019A0549054813F0A5FC13F027
:10210000D0FEC046070080FF40FD02004A380300B1
:10211000E0160300F0B5140087B00290039100228E
:102120002349200002F062F8002205002149200026
:1021300002F05CF801230400049305931E4F002D68
:1021400007D068681D4B984203D004A903F01EFE17
:1021500007001B4E002C07D06068184B984203D034
:1021600005A903F013FE06000024029B154D9C42B6
:102170000AD10023059A019300933100280000F052
:1021800023FA0E4807B0F0BD002C07D00023049AB4
:10219000019300933900280000F016FA0399A30078
:1021A0000022C95828000DF053FF0134DDE7C04676
:1021B000EE050000F6050000D83B030010C3020046
:1021C0002661030050C3020010B5040086B06A46C1
:1021D00002A8102106F03CF90122210068460DF00A
:1021E00037FF02A9024803F0EDF806B010BDC04663
:1021F00040FD020070B50C68E30726D4A30703D1A5
:10220000254B22689A4220D0012820D948680DF039
:10221000EFFF060020000EF04FF8051C300019F00B
:102220008DF8011C1D481BF017FB011C041C281C09
:1022300018F058FD1BF0F0FC211C18F07BFB032369
:1022400002249843164B0443E418200070BD20007C
:102250000EF032F8051C1BF0DFFC061C19F04EF8DE
:10226000311C0400281C18F06FFEFC218905051C98
:1022700018F06EF8002803D0013401239C4306E0D7
:10228000BF21281C090618F063F80028F5D12000AA
:1022900024F0B2FA0400D8E740E202000000204136
:1022A0000000808013B50400080003F0E3F86A46DC
:1022B0000100200007F06AFD009B0248002B00D1BE
:1022C000014816BDD8E60200D0E6020037B500246A
:1022D000022800D98C6848680D6803F0CBF80A4BD7
:1022E0000100002C00D0094B6A4628009847009B4B
:1022F000002B07D001991C00002903D0180000F022
:1023000029FF040020003EBDED9D00008D9D0000D2
:1023100070B504000800150003F0ACF82A000100B5
:10232000200007F08BFD014870BDC04610C30200BD
:10233000F8B50326050007003540022D16D10E4BD7
:102340000340062B12D0FF23DB05C418B443201C26
:10235000002118F003F8002806D080231B06E4189B
:10236000B443064B2C43E7183800F8BD38000BF097
:10237000EFFA0700F8E7C046070080FF0000808002
:1023800010B507F0A5FD002804D1034825F004FE90
:1023900013F087FD10BDC046201603007FB50D4D1C
:1023A0000400A84213D00C4E0122010030000DF0B1
:1023B0004FFE0A49300020F031FC04230293084B01
:1023C0000394DB6902AA0321064801939847280079
:1023D00004B070BD10C3020050C3020026610300A8
:1023E000B8D2020034C0020030B50B0085B0140032
:1023F000012805D90A490B4825F0DBFD13F051FDF2
:1024000009480121C2680192019D0022A8472200CB
:10241000039003A901200FF0A9F9039805B030BD7E
:1024200084380300E01603003C060300F8B50E00F4
:1024300000280FD10400284B1D680021080025F05A
:102440004FF900270600BD4232D10025AC423ED1F3
:102450003000F8BD0868830714D103681F4A93420F
:102460000DD122F0B2FB050030680DF0D9FD1C4BF8
:10247000C26800249A42E0D134680434DDE7194A86
:10248000934201D00DF0CCFD856B002DECD0164BA6
:102490002A689A42E8D00025E6E7EA68FB009958E6
:1024A000002904D0042902D030000FF0FFF80137D2
:1024B000AB68BB42F1D8C8E7A268EB009958002985
:1024C00004D0042902D030000FF0F0F80135636821
:1024D000AB42F1D8BCE7C046000A0020B8D20200E7
:1024E000FD430100FC0D03007400030000237F285E
:1024F00003D8034B1B5C9B07DB0F18007047C046DB
:10250000AF38030000237F2803D8034B1B5C1B0755
:10251000DB0F18007047C046AF38030000237F2848
:1025200003D8034B1B5C5B07DB0F18007047C046EA
:10253000AF38030000237F2803D8034B1B5C5B06E6
:10254000DB0F18007047C046AF38030000227F2819
:1025500008D8054B0132195C0C23194202D15F38AF
:102560004242424110007047AF38030000237F28E9
:1025700003D8034B1B5CDB06DB0F18007047C0461B
:10258000AF38030000237F2803D8034B1B5C9B0656
:10259000DB0F18007047C046AF380300054B00281A
:1025A00005D00023022802D1012349000B43180063
:1025B0007047C046D0E6020010B5024920F02EFB5D
:1025C00010BDC046C7470300F0B587B00392059120
:1025D0000D9A03990500521A0CA9097820200C00C5
:1025E000844339D030293BD00CA9029101218024A9
:1025F00001911C4036D0D40FA4186410171B002C76
:1026000037DD2600019B0493B34200DD04966B681E
:10261000049A029928689847049BF61A002EF1DC68
:10262000039B002B06D01A0005996B682868984711
:10263000039BE418002F0CDDE419019EBE4200DD6F
:102640003E003200029928686B689847BF1B002F34
:10265000F3DC200007B0F0BD074902911021C6E766
:102660000649FAE701271F4001D11400C7E7170008
:10267000D6E70024D4E7C0464139030052390300AD
:10268000F0B593B01C0018AB20CB05901B780F0061
:1026900016000793CB070BD48B0703D1854B0A6831
:1026A0009A4205D038000DF0A3FD012740000743F2
:1026B00081231D4209D1079B302B06D11A9B1B9AFF
:1026C000934200DA1A9200231B93380024F071F829
:1026D0000AAA1300002806DDAB070FD52B231370C1
:1026E000123B04AA9B18E1B2EA0615D5022E0CD1C2
:1026F00030221A704A1C5A7002330DE013006A0728
:10270000F1D520221A701923EBE7082E3BD1302295
:102710001A70AA0534D4013300220AA81A701B1AB1
:102720002C200693AB06DB1718400EAB0B9310233F
:102730000C931B9B0D92012B01DD40231D43402474
:1027400004ABDA752C400390029123D03B00019238
:1027500000960DAA0CA90BA805F0B2F803780700A3
:102760002D2B00D08EE004AAD3750D9B1B9A013B44
:1027700001370D93012A00DD97E00026340035E093
:102780000A000E32B7E7102EC6D130221A700A00A6
:102790001732B0E70AAB019300963B000DAA0CA9D3
:1027A0000BA805F08DF81B9B07002600012B1DDDF3
:1027B0000D9B1B9C9C4200DA1C001A9BA3425EDD11
:1027C00001261C1B2E4001D02600002401239D431E
:1027D0002F330793002C09D0103B00930023019462
:1027E0001A0035490598FFF7EFFE04006B0621D566
:1027F000172104ABC9180B78002B0AD00023012243
:10280000009301920598FFF7DFFE1A9B2418013B05
:102810001A93069B002B0DD0012301930023069AE7
:1028200000930AA90598FFF7CFFE1A9B069A241871
:102830009B1A1A931B9B012B01DC1A9B1B931B9B5E
:102840000D9A0193079B3900009305982B00FFF721
:10285000BBFE2418002E09D02023009300230196EC
:102860001A0015490598FFF7AFFE24180B980EAB18
:10287000984201D022F0A3FD200013B0F0BD002645
:102880003400A3E71B9B012B00DC76E70D9B1B9C10
:102890009C4200DA1C00172304AA9B181B78002B0B
:1028A00000D00134069BE41887E71B9C9C42F8DAB1
:1028B0001C00F6E740E20200BBB00300F0B50600E2
:1028C000140000278DB00D002B78002B15D1A942E4
:1028D00017D30B78002B00D148E14B1C0493202325
:1028E00000253022082104200893049B1B78002B2C
:1028F00011D10693013B07935FE0252BE7D001350B
:10290000E2E76B1A04931A00306873689847049BD7
:102910002900FF18DDE72D2B05D12C3B1D43049B1F
:1029200001330493E1E72B2B01D1293BF6E7202B60
:1029300001D10543F3E7212B01D10D43EFE7302B04
:102940002CD110331D430892E9E7069A4A43D31865
:10295000303B0693049B01330493049B1B781A00BD
:10296000303A092AF1D92E2B47D1049B5B782A2BC8
:1029700018D0049B0A210133049300230793049B7E
:102980001B781A00303A092A17D8079A4A43D318F5
:10299000303B0793049B01330493F0E700230A21A3
:1029A0000693DAE7049B0233049323680434079305
:1029B000DB43079ADB171A400792049B1B786C3B9A
:1029C0005A425341049AD31804931B780593002B61
:1029D00000D1CBE0642B00D1A1E022D8502B29D02C
:1029E0000ED8453B022B00D8A9E00122049930689B
:1029F000736898470137099452E001235B427AE7F4
:102A0000059B622B3CD057D8582BEED1231D099340
:102A1000069B01950393089B029341230093313B4E
:102A20007BE0059B712B53D00FD8672B00D886E035
:102A3000702BDAD1231D0993069B01950393089B04
:102A4000029361230093513B67E0059B752B5AD09D
:102A5000782BEFD0732BC8D1231D24680993002C49
:102A600049D0079B013303D1200027F065FF079071
:102A7000069B079A0193089B210000932B000BE013
:102A8000231D09932368002B0ED0069B042201937B
:102A9000089B384900932B003000FFF795FD3F1845
:102AA0000499099C01310EE7069B05220193089BBE
:102AB000314900932B00EFE7231D099323680BA9ED
:102AC0000B70069B01220193089B00932B00E3E708
:102AD000231D0BA92068099322F02DF9079B010003
:102AE000013301D10B9B0793069B079A0193089B27
:102AF00000932B00D0E7069B06220193089B1F49F9
:102B000000932B00C8E7231D0993069B01950393AF
:102B1000089B029361230093573B00220AE0231D88
:102B20000993069B01220393089B0195029361235D
:102B30000093573B2168300020F07FF8AFE7072370
:102B400007349C43230020686168083309931AF016
:102B500021FA079B011C0293069B059A0193089B8F
:102B6000300000932B0020F0D5F898E738000DB026
:102B7000F0BDC0462F390300343903003A39030051
:102B800010B5040001F086F8074B0200A4331B685F
:102B90000649074820F006F910F0ACF8012C01D1E5
:102BA00010F0C8F8034810BD000A00206339030084
:102BB00050C3020010C3020010B50FF0A9FD014878
:102BC00010BDC04610C3020010B50FF097FD0148BC
:102BD00010BDC04610C3020010B586B0040005AB9E
:102BE00004AA03A902A804F08DFD059B029A019393
:102BF000049B064900930648039B20F0D3F8012C60
:102C000001D104F0BBFD034806B010BD78390300C4
:102C100050C3020010C30200FF2310B50324DB05DC
:102C2000CB18A3430200181CA24204D0042A0BD0E4
:102C30000021002A01D0080010BD17F089FB0749C8
:102C40000028F8D00649F6E78022022112069B18D8
:102C5000A3431943034BC918EDE7C046D8E6020069
:102C6000D0E6020000008080FF23DB0510B50400E1
:102C7000C81803239843002386B0019307330093B9
:102C80001022603302A905F099F902A920001FF073
:102C9000C5FF2E2102A827F037FE00280FD165219D
:102CA00002A827F031FE002809D16E2102A827F0E2
:102CB0002BFE002803D1034920001FF0AFFF06B010
:102CC00010BDC0468B5F030030B50C001100002220
:102CD00085B01D0000920123200010F011FC002C93
:102CE00023D02868124B0340062B06D00324204231
:102CF0000ED1104B02689A420AD103A903F046F89C
:102D0000002203990092130011F05EFE05B030BD61
:102D100003002340022BF9D00DF0CEFA030002206D
:102D2000A3431843044BC018F0E70448EEE7C0463D
:102D3000070080FF40FD02000000808002008080CC
:102D4000F0B5050087B0100001910DF0B5FA041C34
:102D50000390681F182800D9B2E017F025F90D126A
:102D60001F2435407176B1B1B1B1B10D121F2435B8
:102D70004071949DA2A7AC000198211C17F040FC63
:102D800003E0211C019818F0DFF80190032301985B
:102D90004C4A9843013B03439B1871E0211C019866
:102DA00017F0A0FFF1E70021201C17F0D1FA00284E
:102DB00005D04549454825F0FCF813F072F803A901
:102DC00001A820F001F8E1E70021201C17F0C0FA6B
:102DD0000028EED1211C019817F0ACFDD5E70021A9
:102DE000201C17F0B5FA0028E3D1211C01981BF034
:102DF00009F90021041C019017F0AAFA002807D055
:102E0000039A0023002A01DA80231B060193BDE701
:102E10000021201C039E012717F0A0FA002800D1F2
:102E2000071C0021301C012517F098FA002800D15A
:102E3000051CFFB2EDB2AF42A8D0311C201C9DE7AB
:102E4000211C01981AF008FD9FE70021201C17F0B3
:102E50007FFA0028ADD103A901A81FF0B5FF032216
:102E60000220019B1749934303435B180493039B80
:102E7000934303435B1804A905930BF03BFB03004A
:102E8000180007B0F0BD0199201C17F07BFA104B19
:102E90000028F5D10F4BF3E70199201C17F05EFADB
:102EA000F5E70199201C17F053FAF0E70199201C6F
:102EB00017F072FAEBE70199201C17F059FAE6E7D0
:102EC0000023DDE700008080C0390300A017030065
:102ED000D8E60200D0E6020010B504000C2022F073
:102EE00047FA034B4460036001235B42836010BDDB
:102EF0001CC4020010B5043012F084FE004810BD5E
:102F000010C3020010B5043025F06DF8004810BD64
:102F100010C30200F0B50500080087B01400E9886E
:102F20000200002328680DF03BFA0600002C16D0A2
:102F3000042C17D103204643AB6803A99E19012333
:102F4000727852001A43039232789A401A430492DC
:102F5000B2789A40134305930BF0CCFA040020009A
:102F600007B0F0BD03AA032120000DF005FA039B72
:102F700018680DF03DF9039B040058680DF038F90E
:102F8000039B070098680DF033F9FF2C03D8FF2F3F
:102F900001D8FF2805D90849084825F00AF812F099
:102FA00080FFC0B20435E2B20090FBB2B1B228009B
:102FB00025F02CF8024CD2E7EA3903005817030039
:102FC00010C3020073B51C000023009302330800F5
:102FD00011001A0010F094FA206822F06DF9050033
:102FE00060680DF005F9041E05DC0949094824F064
:102FF000E0FF12F056FF0C2022F0BAF90600064B53
:10300000E9B208C0A2B212F0D7FD300076BDC046CA
:10301000D139030058170300BCC4020070B50D007D
:103020000DF04AF9041C28000DF046F9211C17F098
:103030008BFF051C1FF05EFF011C281C17F052FEC1
:10304000211C17F0DDFA0323020002209A43024BF1
:103050001043C01870BDC0460000808010B51FF03E
:1030600049FF0323020002209A43024B1043C01879
:1030700010BDC04600008080F8B5070008680C004D
:103080000DF0B6F80600012F06D1002826DD0EF05F
:1030900097FD23F0B1FBF8BD60680DF0A9F8851B22
:1030A000022F06D1864219DA28000EF089FD801918
:1030B000EFE7A0680DF09CF8041E0ADD281801381F
:1030C000210017F00FF8002808DD0EF079FD6043AD
:1030D000EDE7002802D028180130F1E7024824F07B
:1030E0005BFF12F0DEFEC0465817030010B5074C18
:1030F000002802D00868A04203D10EF081FD200014
:1031000010BD0DF0A1F80EF09FFDF8E710C302000E
:1031100010B504000DF0DEF90DF06AF8002804DCAB
:10312000074824F039FF12F0BCFE0EF049FD23F0F1
:1031300063FB0422010020000DF0E2F910BDC0463F
:10314000B013030010B5024824F026FF12F0A9FEC8
:103150005817030070B505000C200C0022F008F988
:10316000024B45600360846070BDC046A8C5020084
:10317000F0B5456887B00393AB6805A817000291C6
:1031800005931EF087FF060005A81EF083FF0300CD
:103190000320584333000933C018800022F0E8F8B8
:1031A00004000A4BAA6803606B6829004360059B12
:1031B00006629B1AC360039B08300093029A3B008F
:1031C000FDF752FB200007B0F0BDC04630C602003C
:1031D00070B5050088680C0024F0F2FD23000200A1
:1031E000024928001FF0DEFD70BDC046F93903001A
:1031F00010B5024824F0D0FE12F053FE2016030052
:1032000010B50400082022F0B3F8024B44600360BC
:1032100010BDC0466CC60200F8B50400C0681D00B1
:10322000002801D11860F8BD200063692030834276
:1032300008D1154B994206D01449154824F0B9FE1F
:1032400012F02FFE19602000124E63681100083042
:10325000776873600CF034F87760012807D000239A
:10326000E36002280AD063691B682B60DBE76369AF
:103270001B682B60002BD6D1E360D4E7236A0733A9
:103280009B00E4186368F0E710C30200373A0300BC
:10329000E0160300000A002013B501AB1400FFF78D
:1032A000BBFF01280ED0184C02281CD0019BA34262
:1032B00028D0002B26D001AA0121144824F066FE54
:1032C00012F0EFFD002C0CD020000CF0A9FE1049EC
:1032D00011F05CFA002804D00E490F4824F069FE72
:1032E000EEE7019816BD01980CF09AFE074911F01F
:1032F0004DFA002801D10198E2E7019812F084FB11
:10330000A042F8D10020EDE710C302002016030010
:10331000FC120300173A0300D815030010B50C0087
:1033200002280BD1486807F075FA064902002068A8
:10333000FFF7B2FF002803D1FFF75AFF8868F2E7D2
:1033400010BDC04610C3020010B500220149FFF7AE
:10335000A3FF10BD10C3020013B5124C01AB124AFB
:103360002100FFF759FF012803D0022807D02000D1
:1033700016BD0E490E4824F01CFE12F092FD019875
:103380000CF04EFE0B4911F001FA0028EFD1019824
:103390000CF046FE084911F0F9F90028E7D1019830
:1033A000EBE7C04610C3020050110300173A0300B8
:1033B000D8150300FC12030020160300F0B5060028
:1033C00000248BB0194B1A48E15800F055FB03AFAD
:1033D000E05104341C2CF5D11423002473430193D1
:1033E0000025AB00F958134824F05CFD013530008E
:1033F000FCF796FF072DF4D1013DAB000D48F958BD
:1034000024F050FD3000FCF78BFF013DF5D2013474
:10341000082C03D112F0FCF90BB0F0BD01231C42C3
:10342000DED10198FCF77CFFDAE7C046DCC602007B
:10343000D8B802002C00002010B51920FFF7BEFFFD
:10344000004810BD10C302000300203B5E2B00D9D2
:103450003F20052320384343014A1068C0187047B5
:103460003800002070B505000800684301304010A6
:1034700008300C0021F07CFF0122044B85710360B1
:10348000037944719343037170BDC046A0CA020022
:1034900010B50400102021F06BFF044B036063683B
:1034A0004360A368C3600023836010BD74C702003B
:1034B00070B50500202021F05BFF05210B4B0400B7
:1034C00003600800FFF7CEFF6B68EA68A060236125
:1034D00062602A7C2000A276AA689B1863616B7CDC
:1034E000E3761FF0AAFD200070BDC046E8CA0200C6
:1034F00010B50379DB0705D50349044824F059FDCD
:1035000012F0CFFC10BDC0466D3A0300E016030078
:1035100070B50D000400FFF7EBFF28000CF068FE0B
:103520000100092805D90549054824F042FD12F09B
:10353000B8FC20001FF0E3FD024870BD0B3B030008
:103540005817030010C30200F7B5C36842690400AE
:1035500093420BD1037E052B08D1C37E181E43D0A6
:1035600020001FF06AFDA0681FF0D7FD012500268E
:103570006B1E0193A7683200290038001FF08BFDF5
:10358000320003000199380001361FF091FD052E2D
:10359000F0D10135052DEAD100252A0000230421B0
:1035A000A06801351FF084FD052DF6D1227E637ED3
:1035B0009A421AD2207FFFF747FF00250700042612
:1035C000227E7B5DB21A134101221340083253431D
:1035D00004212A00A06801351FF06AFD052DEFD1F6
:1035E000237EA06801332376FEBD9A42F8D1E368BA
:1035F00061695A1CE2608A4205D120232377A02307
:10360000DB002383ECE758782077FFF71DFFA17ECE
:103610000500002901D0064BF3E71FF0E5FC40420E
:10362000207628001FF0F8FC01306076D8E7C0460D
:10363000FF050000F0B50C000B6889B0070018000A
:103640000493FFF755FF656828000CF0E9FC1F4B59
:103650001F49984202D1072F05D11E491E4824F068
:10366000A8FC12F01EFCA0680CF0C2FD0690E068F9
:103670000CF0BEFD079020690CF0BAFD0590606962
:103680000CF0B6FD059B0600002B01DB002802DADA
:1036900012491348E3E7062F14D0A0690CF0A8FDE7
:1036A0000700E0690CF0A4FD059B0390009328003F
:1036B00002970196079B069A04991FF05CFD094842
:1036C00009B0F0BD00200700EEE7C046A0CA020026
:1036D0009A3A0300AD3A0300E0160300C73A03002C
:1036E0005817030010C3020070B50400080016004C
:1036F0000CF07EFD050030000CF07AFD0600002D78
:1037000001DB002805DA0D490D4824F052FC12F0C7
:10371000C8FB20001FF01AFDA84204DD20001FF0A6
:1037200023FDB04201DC0749EEE73200290020000A
:103730001FF0FEFC43000120184370BD253B030031
:10374000581703003E3B0300F8B50D000C6820003D
:10375000FFF7CEFE68680CF04BFD0600A8680CF081
:1037600047FD0700002E01DB002805DA104911484B
:1037700024F01FFC12F095FBE8680CF039FD050001
:10378000092801D90C49F2E720001FF0DFFCB04204
:1037900004DD20001FF0E8FCB84201DC0749E6E741
:1037A0002B003A00310020001FF082FC0448F8BDD5
:1037B000253B0300581703000B3B03003E3B03006F
:1037C00010C30200F7B50E002549040001921FF056
:1037D000E9FA019B002B03D1224920001FF0E2FAF5
:1037E000214920001FF0DEFA002530001FF0BCFC4C
:1037F000A84225DD002730001FF0A8FCB8420CDDF0
:1038000039002A0030001FF093FC184B18491A5C4D
:1038100020001FF0C7FA0137EDE7164920001FF01E
:10382000C1FA019B002B09D130001FF09DFC01382B
:10383000A84203DD104920001FF0B4FA0135D4E797
:10384000094920001FF0AEFA019B002B03D10B4960
:1038500020001FF0A7FA0A4920001FF0A3FAF7BDC5
:10386000CD3B0300D43B0300E03B0300E23B0300FD
:1038700026410300EC830300DA3B030026610300CA
:10388000BD800300F0B50E00110000228BB01C00BB
:103890000092032330000FF033FE032E00D9D8E04E
:1038A000300016F081FB020B949405210800FFF70D
:1038B000D9FD070038001FF030FC18E02068664B87
:1038C0000340062B07D0830700D07AE0634B0268E1
:1038D0009A4200D075E007A902F058FA079B0390BE
:1038E0000593012B06D100781FF041FE0700380038
:1038F0000BB0F0BD00231E00039A029303990598B4
:10390000511A884215DD11780A2901D03A2908D1C7
:103910009E4200DA1E00029B013302930023013213
:10392000ECE701332029FAD03929F8D94C494D4820
:1039300049E0002B05D0029A013202929E4200DA41
:103940001E0002993000FFF78DFD002507002C00B6
:10395000039B0493039A049B9B1A059A9A4223DDC6
:10396000049B1B780A2B01D03A2B0FD1A64207DD0E
:10397000210000232A0038001FF09AFB0134F5E7EC
:1039800000240135049B01330493E3E7202B07D186
:10399000002321002A0038001FF08AFB0134F1E7E0
:1039A000392BEFD8303BF4E7029BAB429FDDA642B8
:1039B0009DDD210000232A0038001FF079FB01342F
:1039C000F5E72949294824F0F4FA12F06AFA206848
:1039D0000CF00EFC050060680CF00AFC029001007F
:1039E0002800FFF73FFD0700022E00D162E7012209
:1039F00007A9A0680CF0B6FD002D0BDB029B002B85
:103A000008DB0024089B03940493029B049A6B43F5
:103A1000934205D016498AE7039B01345B1903934F
:103A2000029B9C4200D162E70026AE42F4D0039A8A
:103A3000079B9446049363449A5D131C092A00D99A
:103A400009233100DBB2220038001FF031FB0136C0
:103A5000EBE70849B6E7C046070080FF40FD0200DB
:103A60004E3B030058170300783B0300E0160300A9
:103A7000913B0300AE3B0300F0B585B0019105001A
:103A80000021019816F06AFC041E05D02349244841
:103A900024F08FFA12F005FA28001FF057FB0600F9
:103AA00028001FF061FB01003000FFF7DBFC07007E
:103AB00028001FF04BFBA0422CDD002628001FF041
:103AC00045FBB04224DD3200210028001FF030FB0E
:103AD00017F034FC019917F005F919F009FA0022E2
:103AE000104B17F0B5FC104B00220290039116F01A
:103AF000FBFB0923002804D00298039919F088F9E8
:103B000003003200210038001FF0D2FA0136D5E759
:103B10000134CDE7380005B0F0BDC046DF3A030000
:103B2000581703000000E03F00002240F0B587B0C6
:103B30000491059207001FF017FB040038001FF0E6
:103B400005FB029004981FF00FFB0190A04205D0E6
:103B50001A491B4824F02DFA12F0A3F90199029892
:103B6000FFF780FC00250390029B9D4223DA00268C
:103B7000019BB3421DDD3200290038001FF0D8FA46
:103B800032000400290004981FF0D2FA059B002B94
:103B90000AD02318092B00DD0923320029000398DD
:103BA0001FF086FA0136E3E7231ADA43D2171340EF
:103BB000F3E70135D8E7039807B0F0BDED3B03000C
:103BC00058170300F8B5040008000D0016000CF0AB
:103BD00027FA164FB84201D000200FE0053C042C14
:103BE000FAD8200016F0D6F9141403F80B003000B0
:103BF0000CF062FB011C2800FFF73EFFF8BD30000F
:103C00000CF05AFB011CFE20800516F093FEF1E734
:103C100030000CF005FAB842DED162426241310058
:103C2000D2B22800FFF782FFE8E7C046A0CA020030
:103C3000F7B507000193142008AB0E0015001C789F
:103C400021F096FB044B476003606B461B7986604E
:103C5000C56003744474FEBD24CB020070B505003A
:103C60000C2021F085FB0521044B04004560036016
:103C70000800FFF7F7FBA060200070BD28C7020016
:103C8000034B82B0A03301AA1A6002B07047C0464D
:103C9000000A0020034B82B0A033186801ABC01AA1
:103CA00002B07047000A0020014BA433186070472F
:103CB000000A002010B50349034824F073F912F0FC
:103CC000F0F8C04626090000D8150300064B07B5DA
:103CD0001A00A033A4321B68126801A95B1A9A4229
:103CE00001D8FFF7E7FF07BD000A0020F0B50F007D
:103CF000496885B005001600002901D0002A05D1C9
:103D0000390028001FF057FD05B0F0BD0F32130930
:103D1000C91800931FF0BDFC0F22A868B9687C6821
:103D2000324000D11032009B1E19234BF3185B0068
:103D3000C018214B0290E3185B00CB1801901020B3
:103D40009C4621000023801A002921D1C3401A4833
:103D5000029A84466400141B2380009B5B00E41AD3
:103D6000009B023463445A00200026F07FFC002EA2
:103D700004D07300023BE35A002B1BD001216E607C
:103D80003B78DB07DA0F2B788B4313432B70BBE7B1
:103D900062461288013913431A00C2400393019B03
:103DA0001A80019A039B023A0192022252421B049A
:103DB0009444C9E7013EDAE7FFFFFF7FF0B54B68A7
:103DC0001500526889B006000C00934201D22C0005
:103DD0000D000121227863680A4201D12A7811403E
:103DE000C91830001FF055FCB36822780193A3680E
:103DF00017000293636829789C46AB684F40039391
:103E0000012318001F408B43069363469043020032
:103E10006046591E019B04936B681B1A07934B1C49
:103E200018D163465900019B5918002F02D0012375
:103E30000B80023101981FF022FC01217060227872
:103E40002B7853403278DB078A43DB0F1343337000
:103E500009B0F0BD029B13481B881B189B180593E3
:103E6000079B5B188B421AD8039B039A1B8802326C
:103E70001B180392069A01399B18059A5A4092B270
:103E80001B0CD7190693049A059B17801A0C049BE8
:103E90003F0C02330493029B02330293BFE7014BB2
:103EA000E8E7C046FFFF0000F0B591B007935B68FC
:103EB00004000E000692002B03D143604B6011B04A
:103EC000F0BD069B5B68591C01931FF0E2FB069B4B
:103ED00000215B68A0685A1C5200019326F0C6FBC3
:103EE00000236360069B30005B68591C01931FF040
:103EF000D0FB069930001FF05EFCB3687568029332
:103F0000079B9B680393079B5B680593A3680893D3
:103F1000059BAB421AD81BD3039A290002981FF0C5
:103F2000FEFB002810D10123089A706013806360A3
:103F3000069B1A78079B1B785A4001231A42BED071
:103F4000227813432370BAE7002801DA0023EEE752
:103F50000021059B864A9A18039B52009B180493E4
:103F60001B88019119B2002965DA931C0C930C9AF5
:103F7000039B10219F1800229446019A8A1A0992E5
:103F8000BB425ED300201027029A6B00D0526A1CFD
:103F9000029D099272609A1CAA180A922A00019D39
:103FA000791B0B910A998A4258D3049A12880E926F
:103FB000029AD518059B099AD11A6D4B6160C918F0
:103FC000089B49005B180A9373680B930B9A059B37
:103FD00093424ED310220020019BD21A039B0499D6
:103FE0008B4200D8A9E0624A1021944600250B9B21
:103FF000029A63445B00D318019A891A029A9A4282
:1040000000D8A8E06368002B07D0594A08999A188D
:104010005200525A002A00D1A7E07368002B87D0C3
:10402000534A02999A185200525A002A00D07FE748
:10403000013B7360F1E701995B0001319BB289B2EA
:104040008FE71A8801991000884061460843099952
:1040500018800A4192B29446023391E7158801997B
:104060002F008F400B9938430D411080A8B20232C7
:1040700098E7AB1E28880F931B88000418430E99FD
:1040800015F0A6FF002284460C9BEB1A0D93039BB0
:104090000D9909938D4212D82B889A422BD3D31AAB
:1040A0005A42190C9BB22A805A1E9341CB1809938D
:1040B000099B002B21D0039F0D99002030E0604622
:1040C000099B0F881B884343BB4202D2F81A9042D7
:1040D0000DD8DB1B9B189FB2781E87415A420A807D
:1040E0001A0CD219099B023102330993D2E7821AC2
:1040F0000A800022F6E79A1A2A8062460A9B0F9DE0
:104100001A80023B0A930B9B013B73605CE70B88B0
:104110001A003B880237D31818180880000C0231A7
:104120008D42F4D82B881818099B2880000C1B1A84
:10413000099301235B429C44BAE7049B019D1B88C1
:1041400019002941934001430498018098B2049BCF
:10415000023B049342E71A88019F100038418A40CD
:104160002843188095B2023B48E7013B636049E76A
:10417000FFFFFF7F436870B55A00002384680A4D33
:10418000A218944206D30278D20700D55B420120E0
:104190000B6070BD023AAB4203D816881B04334350
:1041A000EFE70020F5E7C046FF7F0000F8B51F00ED
:1041B0008B1E160000241E2B14D80B4B4068595C34
:1041C000000115F005FF0500A74204D001300321CE
:1041D00015F0FEFE0400301E01D026F0ADFB0335C5
:1041E0002C1924182000F8BD0B3C0300F0B587B053
:1041F0000092027804000E00930703D5009B002B69
:1042000000D0DFE0D307DB0F0ED06F4B3340062B1F
:1042100043D00323334003D16C493068884203D034
:10422000009B012B00D0CDE00193530749D52368B3
:10423000A568DF08FF00EF19BD4230D3009B012BBA
:1042400000D0BFE02368D9086368994210D10431D7
:104250006160A068C90021F0A1F823686268DB08EA
:10426000D21ADB00A060D200C018002126F0FEF9AF
:1042700007212368DD086A1CD2000B40134323602A
:10428000A368ED005D19504B2E601E40062E4ED0E7
:10429000012223789343237049E00123C4E728686F
:1042A000B04204D1009B022B41D1042361E0019B69
:1042B000002B04D131000BF049FF0028F2D1083562
:1042C000BAE76368002B06D1009B012B00D079E090
:1042D000200000F07DF83C4B33400593062B29D19C
:1042E000F00820F019FD03906168039815F0F6FEC0
:1042F00000270491049B0293029BDD00A3685D19D3
:10430000286800281DD1009B012B5BD10721236861
:10431000DA080132D2000B4013432360002F00D093
:104320003D0000236B60059B2E60062BB0D128005A
:1043300007B0F0BD3100022005F042FC43100393AA
:10434000D2E7042803D1002F1DD12F001BE0B0427B
:1043500011D1009B022BEAD123680298083B23600D
:104360000130616815F0BAFEA368C900CB58002B74
:104370009BD12B60DBE7019B002B04D131000BF0BC
:10438000E5FE0028E5D102986168013015F0A6FE2F
:10439000049B02918B42AFD1009B012B12D1002FC5
:1043A0000CD023683D000833236000237B60059B0D
:1043B0003E60062BBBD02378009A6BE7200000F00C
:1043C00007F891E70025B2E7070080FF40FD0200F3
:1043D000F7B54368040001935A1C0023164998005E
:1043E0004558AA4204D90133172BF8D101251543AA
:1043F000E800A76820F0CEFF07232268656013401D
:1044000001220025236013432370A060019B9D427D
:1044100003D1380020F0D3FFF7BDEE00B9590029D1
:1044200008D0042906D001222000FFF7DFFEBE19C4
:10443000736843600135E9E760CB0200F8B5050019
:104440000023046886681349621C98004058824221
:1044500004D90133172BF8D1012010430023286021
:104460006B60800020F096FF3700A400A860A419BC
:10447000A74203D1300020F0A2FFF8BD396800291F
:1044800005D0042903D0012228001FF00BFF0437B8
:10449000EEE7C04660CB0200034B04481B78002BBC
:1044A00000D103487047C04600B00200D8E60200C1
:1044B000D0E6020010B5DA2020F05AFF0023037086
:1044C000024B8C331860024810BDC046000A002021
:1044D00010C30200F0B507000E001500094C87B0AC
:1044E0002000019320F07BFF02AB1F70019B102284
:1044F00002A9200003960495059305F08BFA07B0F6
:10450000F0BDC04600B00200F0B5704B93B08C33E4
:104510001A680092002A02D1002013B0F0BD0022D8
:104520001A60009B1B789342F6D00D240125009E53
:10453000674F6A360D231B1B01933B00019A134101
:104540002B4213D02300E0000D333118301A0293B0
:104550001FF072FFBB235B00984207DC2B00029A1E
:1045600093402A009F43019B9A409743013C002CB3
:10457000E0D10A23049300230193019818F0B8FCBA
:10458000049B08900991013B04930EAA39000098FE
:10459000002B00D184E00C261FF01CFF4D4B76420F
:1045A0000793009AF300D31A059373420693494B7D
:1045B000029603930124029B64420D330C93069BE5
:1045C0000D330D930C9B1B190A933B000A9A134160
:1045D000012213423BD00D9B079A1B1B0B930EAB82
:1045E0001B8810ADD3182B800EAB5B88039A290073
:1045F000D318FA22D20062436B800EAB9B889B18C3
:10460000AB80029B0EAAE018009BC0006A33C01862
:104610001FF041FF019915F0A1FE00280FD1059868
:10462000E3006A30C01A0EAA29001FF034FF80226E
:10463000019B1206991815F0A5FE002807D001234A
:104640000A9A934001229F430B9B9A40974301345F
:10465000022CB7D1FA22D2009446029B0333029374
:10466000059B183B0593069B033B0693039B634402
:104670009BB20393FA23039A1B019A429AD1079B98
:10468000093663449BB207930F2E8AD10898099983
:10469000114A124B16F0DCFE18F07CFC01906CE71E
:1046A0001FF098FE04000EAB04229B5E0EAA0221AE
:1046B000525E0EA90020095E1B01120109010120B2
:1046C000FFF708FF200022F097F826E7000A0020F5
:1046D000FFDFFF0730F800009A9999999999B93F3F
:1046E000F0B5574C8BB003902379002B05D1554979
:1046F000554823F05EFC11F0D4FB0398FFF7DAFE77
:1047000000225249200023F017FC10F04FFF002830
:104710000BD04F480DF02CFB002804D14D480DF074
:1047200027FB0028F1D011F073F820201EF01FFFA6
:1047300000230700190007AA995401330C2BFBD161
:104740000224002325000293019306AB05AA04A9C5
:10475000414820F080FA00232200290038001EF092
:10476000A7FC049B3D4A002593420CDB1900013550
:10477000C83108DBC821033589008B4203DC023DC8
:10478000C82B00DD0135059B002493420CDB1A0089
:104790000134C83208DBC82203349200934203DCA0
:1047A000023CC82B00DD01340422029B134205D1D8
:1047B00009232200290038001EF07AFC0026284B2D
:1047C000700007AAC15CB35C002B28D0244B1B18D7
:1047D0005A78092338001EF06BFC01360C2EEED1FE
:1047E000174E3900300023F05DFB6420FBF798FD85
:1047F000029B01330293019B0B2BA6DD194930006C
:1048000023F050FBFA208000FBF78AFD0398FFF7A6
:104810007BFE040010F0FCFF20000BB0F0BD8D42C9
:10482000DBD10F4B1B185B78A342D6D10123B354C5
:10483000019B22000133019329000923CAE7C046E6
:104840002C000020443C0300D8150300703C0300FA
:10485000180703002407030010D50200E0FCFFFF47
:104860002C3C0300D0B80200002310B518001A0039
:104870001900FFF72FFE014810BDC04610C302000B
:1048800070B50021032009F035FE084D040068686A
:1048900021F0B2FFA060A86821F0AEFFE060E868F8
:1048A00021F0AAFF2061200070BDC04600B00200C8
:1048B00070B548680C000BF09BFC0500A0680BF07D
:1048C00097FC0600E0680BF093FC3200030029001F
:1048D0000120FFF7FFFD014870BDC04610C3020074
:1048E000F8B50B4E3378002B10D10A4D2C78E4B27A
:1048F000002C0BD1012700682F7003685B68984774
:10490000054A2C7013683770DB191360F8BDC04678
:10491000790900207A09002078020020F0B53E4B8A
:1049200087B01B780400002B01D1FFF7D9FE201DB2
:10493000FFF7D6FF394D280014F0B0F80021606869
:1049400024F06DF8344E049073680021606805937C
:1049500024F072F8B368002102906068039324F099
:1049600078F8F368C01A16F0E9FC041C280025F05A
:104970005BF8061C280025F04EF8051C301C19F0C9
:10498000D1F9071C301C18F011FD0190281C19F0FA
:10499000C9F9061C281C18F009FD029B039A051C86
:1049A000981A16F0CBFC291C16F09CF9311C051C3A
:1049B000201C16F097F9011C281C15F021FE8023FD
:1049C000049A05991B06C518501A16F0B7FC0199F0
:1049D00016F088F9211C061C381C16F083F9011CFE
:1049E000301C15F00DFE80231B06C018291C19F081
:1049F00005FB0B4916F076F918F07AFA094A0A4BCA
:104A000017F042F818F004FA002801DA6930FF3094
:104A100021F0F2FE07B0F0BD00B002005006002009
:104A20000000B443EA2E4454FB21194010B50400A1
:104A30000430FFF755FF0021606824F00AF8034BAB
:104A4000DB68C01A21F0D8FE10BDC04600B00200DD
:104A500010B504000430FFF743FF0021606823F025
:104A6000DEFF034B5B68C01A21F0C6FE10BDC046D6
:104A700000B0020010B504000430FFF731FF002140
:104A8000606823F0D9FF034B9B68C01A21F0B4FE85
:104A900010BDC04600B0020070B500210500032023
:104AA00009F028FD0400281DFFF71AFF002168689F
:104AB00023F0B5FF0C4E7368C01A21F09DFEA06074
:104AC0000021686823F0B8FFB368C01A21F094FE93
:104AD000E0600021686823F0BCFFF368C01A21F091
:104AE0008BFE2061200070BD00B00200F0B54C4B81
:104AF00089B08C331B680293002B4CD0494804309A
:104B0000FFF7EEFE484C0021200023F088FF002133
:104B100003112000039323F08FFF002103112000D5
:104B2000019323F096FF03110493029B039A1B78D1
:104B30005242002B31D1019B0321D31A9C4649429A
:104B40000800654609380124032664420319029FC0
:104B5000DB00FB186A461F0092896A373A806A4672
:104B6000928870337A806A46128A013EBA80049F26
:104B700067437F191F800134002EE7D1019B03306A
:104B8000ED188142DFD1039B09319C441829D7D10C
:104B90000123029A137009B0F0BD019BD71A0322BA
:104BA0005242110005970939012003264042049C16
:104BB000059B4443E3180693029C0B18DB00E318A3
:104BC0001C00703407940025645FA446069CA4452D
:104BD00015DA6A24A4466D469C446446AD89258056
:104BE0006C24A4466D469C446446AD886E33258093
:104BF0006C46248A1C806C46079B248B1C80013EDB
:104C00000130002ED3D10598019B0331C3180593C1
:104C10008A42C9D1039B0932FF18182AC1D1BAE7C9
:104C2000000A00200CCD02008C060020002313B5E2
:104C3000044A046A09050093890C8A58A16B1FF085
:104C4000F3FC13BD14CD0200F0B587B000931B78C0
:104C500004000F0002927C2B05D18268525C002A6E
:104C600001D09A2A14D11A006B3A022A2DD8A568CD
:104C7000E8190378032B5FD104A966681FF0A0FD33
:104C8000AB19984206D16760049920001FF0FCFC24
:104C900007B0F0BD0378032B4ED105A91FF090FD9E
:104CA000009B1B786B2B04D1049B059A1343049340
:104CB000E6E76C2B03D1049B059A5340F7E76D2B75
:104CC000DED1059B049A1340F1E76E2B05D002223A
:104CD00019009143702900D086E0A368D819019388
:104CE0000378032B28D1636804A903931FF068FDA0
:104CF0000600019B039A9B189E42C4D0B378B01C57
:104D00007578032B18D105A91FF05AFD0600372D21
:104D100035D1059A1F2A0FDC4149049B1141994264
:104D20000ADBC021090611418B4205DB9340049345
:104D3000049A53005340DCD500226368029DDB1BBC
:104D40000193561CED0969D1019B0135DB09FCD1AA
:104D5000023252193900200020F09DF90400009B16
:104D6000029A1B7831001A33037001301FF0DEFB0A
:104D7000701C2018019A29001FF0D8FB88E7392DF4
:104D800008D1059B1F2B01DD1F230593049B059A6A
:104D90001341CCE72F2D03D1049B059A9B18C6E73E
:104DA000302D03D1049B059A9B1AC0E7312D09D100
:104DB00005990498FBF7CEFA0028BDD1059B049A0B
:104DC0005343B4E7332DB7D00599352D06D10029CB
:104DD000B2D004981DF0E2F80490A9E70029ABD006
:104DE00004981DF0EBF8F7E7752BA5D1A368D81947
:104DF0008378032BA0D1457802301FF0F0FC2F2DD3
:104E000001D104903FE7302D06D140424300049089
:104E1000584000D437E78FE7C043F2E7320090E70D
:104E2000FFFFFF3FF0B597B00890C020002540235A
:104E30000AAC80000F00160025706360A56020F0AA
:104E4000A4FA2561E0606561A561E5612762E5621C
:104E5000A84218D1C449C54823F0ABF80023060086
:104E600013930D9820F0ABFA002E00D1E1E100235E
:104E7000BA6B3968300010F055FE380021F0ECFBB9
:104E8000300011F00EF8321E03D00422022E00D0A2
:104E9000033A0026B6490096920052582000B96B9A
:104EA00033001FF0C1FB102020F062FA1021040033
:104EB00020F051F80AADAB682A78002B00D195E1BB
:104EC000002AC7D1013B0C32AB605343EA68A849C2
:104ED000D318DA785D689200525802921A689B687B
:104EE0001202120A0393029B05925B7806930F232A
:104EF000069A13400493002D01D163680393302375
:104F0000069A1340102B27D0202B63D0002E00D000
:104F100045E10123069A1A400992099A02992A400A
:104F20005300CB1880215B88490107931B0B1B039F
:104F30008B4200D04BE13B00079940331B780905B9
:104F4000090D8B4200D029E1002A00D121E138006F
:104F500021F0F2FB0135E0E7002D01D0002E35D025
:104F60008022390052014031049BAB4201D8012616
:104F7000A0E7029B6E009B195B88180B0003904210
:104F800013D108781B051B0D984221D121000AA8D6
:104F90001FF089FB002819D13B0040331B78062BFA
:104FA00000D03AE17349744856E7049A6B1C934267
:104FB00006D2039A059900920AA8029A1FF034FBC0
:104FC000029B9E1971880AA8FFF730FE002671E740
:104FD0000135C9E7002E0BD0029A6B009B5A1B0BC0
:104FE000032B47D10121200020F01DF8002303707E
:104FF000049BAB4242D880200026029B049A0233D5
:105000005100C9184001994271D1A368039A9818B8
:1050100000230493A2686368D318984272D3029B5A
:105020001B781F2B01D02E2B00D10126029B597813
:1050300040230B405842434149B25B421E40002985
:1050400000DA01260025039B0695D0180795049BDE
:105050009D425ED1002E02D1079B012B69D006999B
:10506000200020F04CF8029B059A03992000FFF7DE
:10507000EBFDABE7012D00D879E78DE78021029B9E
:105080006E009E19738849011A0B12038A4225D1BA
:105090003A0040321278DBB29A421BD1082A07D17B
:1050A000B96CF86C02F0C2FA010020001FF0B2FAED
:1050B000002D0AD1029B5B787F2B06D90E9B200026
:1050C000591C06930E911FF0DFFA380021F034FBD3
:1050D00001358DE7002D00D149E75DE7039A6B1C90
:1050E00000920599029A0AA81FF09EFA6AE71A88A8
:1050F000150B2D03854203D1D2B2072A00D9012610
:10510000023380E7049B0121013304931FF031FA3D
:1051100080E7069A037801320692002B04D0079BA1
:10512000013307930023069301211FF022FA013572
:105130008DE7A268039B944663441D00049B9E4236
:1051400000D143E72B78002B07D1A3680122E91A8D
:1051500020001FF0E0FF0136F0E7280001211FF0DA
:1051600008FA0500F7E7C0467E3C0300AC140300D4
:1051700014CD0200A63C030074130300012D00D1DE
:10518000F5E601232A001A402ED0049A032A0DD0F6
:1051900002E721000AA81FF086FADBE60135049B2E
:1051A000022BEBD10023012D00D1E0E6069A691E07
:1051B000D20705D5029A9288120B012A00D16908FC
:1051C000012900D04FE7002B00D1FFE64BE7039AFF
:1051D000059900920AA86B1C029A1FF025FA0799FC
:1051E0000AA8FFF723FD65E61300DFE7002A00D0D9
:1051F00030E63B0040331E78002E00D0CCE66368DA
:10520000002B00D1C8E62B692000591C1FF03CFA86
:10521000A3686B62EB69AB6223E6022B01D10A49FA
:10522000C1E60B3B09480A49012B00D814E609499D
:1052300012E6380021F010FA089A13AB13CB13C210
:10524000089817B0F0BDC046B83C03005C160300D8
:10525000EC3C0300133D0300032230B50240012162
:10526000002A04D1084C05680B00A54209D00B00A8
:10527000034006D1002A04D1036804481B1A58428F
:105280004341180030BDC046E0E6020040E20200A3
:1052900010B50400FFF7E0FF012200280AD1032324
:1052A00002002340022B05D103480440063C2200A3
:1052B000541EA241100010BD070080FF10B521F060
:1052C000DEFE03490200034810F0BEFB10F0E9FDCA
:1052D0002B3D0300E016030010B50400102020F061
:1052E00047F8044B84600360034B43600023C360B2
:1052F00010BDC046E0F70200A54B0200F7B5040060
:105300000E00019301208B180A0000210093009BDE
:10531000934212D82725002900D0053D224F2A00AC
:10532000390020001DF03EFD009B9E4214D32A0050
:10533000390020001DF036FDF7BD1378272B08D06B
:10534000223B5D426B41DBB20132002BDFD02725CF
:10535000E4E700230100F7E73278AA4205D12A00EA
:10536000124920001DF01EFD1AE011495C2A14D0DC
:105370001F2A09D97F2A15D0019B002B02D053B2D6
:10538000002B07DB3900ECE70A490A2A05D00A4955
:105390000D2A02D0092A05D1084920001DF03EFC43
:1053A0000136C1E70649DCE7264103002541030039
:1053B000294103002C4103002F4103003241030027
:1053C00035410300194B70B506000C0098420FD10F
:1053D0004968A06802F0F8F8051E09D020001FF007
:1053E000E5FD0023ED00236006331D43280070BD5A
:1053F00010201FF0BDFF6168050081600660A06895
:1054000002F0C4F863686860591C2368994208D1A7
:10541000A368EB600023EA68A9685354A360236083
:10542000E4E7A0681FF0BAFFE860F3E740FD020080
:1054300070B504000D00002A05D002F0F7F8C30093
:105440000620184370BD02F0BFF80028F7D12A00EB
:10545000210002481FF073FAF4E7C04640FD020045
:1054600010B50A00010002481FF069FA10BDC046DD
:10547000C8CF0200094B10B50340062B01D1C0086C
:1054800010BD830708D1064B02689A4204D1816897
:10549000C06802F0CBF8F3E7FFF710FF070080FFCA
:1054A00040FD0200064B10B50340062B03D1C00897
:1054B0001FF041FC10BD8368C0680B60FAE7C0466E
:1054C000070080FFF0B50E00002589B0110007002D
:1054D0001C003000009503232A000EF011F80E2066
:1054E000AE420FD0012E0FD102AA102104A802F063
:1054F000AFFF216802A82A000AF0AAFD04A938001B
:10550000FFF760FF09B0F0BD206883071BD1134B84
:1055100002689A4217D104A9FFF7C4FF104B050097
:1055200020680340062B0CD1C0081FF0F5FB0400D7
:105530001020049E1FF01CFF07608660C560446059
:10554000E0E74468F4E704A901220BF00BF800221D
:1055500005990498FFF76CFFD4E7C046C8CF020056
:10556000070080FFF0B58BB0049008680D0006922C
:1055700007930AF055FD040068680AF051FD060023
:10558000A04202D06868FFF799FE08A92868FFF7D3
:1055900089FF040009A96868FFF784FF089A05904D
:1055A000A3180393049B2700022B19D9AB681E494B
:1055B0008B4206D0012130000091210008F0ACFDA3
:1055C0000700049B032B0BD0EB68174A934207D0CC
:1055D0000122210000923000089A08F09DFD0390FE
:1055E000039B059AD91B069B38000093099B1FF06B
:1055F00087F9002809D1079B0138002B0FD00B49F0
:105600000B4822F0D6FC10F04CFC0A4B9E4208D10D
:10561000010020001DF0C4FA4400012020430BB01B
:10562000F0BD041B6400F8E710C302004E41030004
:105630005817030040FD0200F0B58DB0040003913F
:105640000AF0EEFC04A906002000FFF72BFF0190F2
:10565000039883071ED10368314A934217D106AAE3
:1056600005A921F0F2F900242500059BA34220D8CA
:105670002900002508A81FF085FC0A9C059BAB4269
:1056800036D808A93000FFF79DFE0DB0F0BD254AC1
:10569000934208D023480022C36801210293029C50
:1056A00003ABA047039006AA05A9039822F02FF8A0
:1056B000D9E7069BA700D8590AF0B2FCB04205D042
:1056C00019491A4822F075FC10F0EBFB002C01D0B0
:1056D000049BED18069BD859154B0340062B05D1AA
:1056E000C0081FF01EFB2D180134BEE78068FAE7E2
:1056F000002D06D02000049A019924F09BFF049B02
:10570000E418069AAB00985807A9FFF7CBFE079A52
:105710000100200024F08EFF079B0135E418ADE75F
:1057200054FE02003C06030062410300E016030041
:10573000070080FFF0B5070087B008680D000AF089
:105740006FFC04A906002868FFF7ACFE05A9040059
:105750006868FFF7A7FE03902000022F07D90123F6
:105760000093AB68049A2100300008F0D5FC059A3C
:10577000041B049BA418064D9C4205D8039924F0F1
:105780004AFF002800D1034D280007B0F0BDC046F5
:10579000D0E60200D8E6020073B50D0006006946A7
:1057A0002868FFF77FFE01A904006868FFF77AFE0A
:1057B0000100022E02D9084805F014F9019A009858
:1057C000064D824206D8801A201824F024FF0028B3
:1057D00000D1034D280076BD3C410300D0E6020015
:1057E000D8E60200F0B58FB0079010680C001600E4
:1057F0000AF016FC0690012C31D070680AF010FCFB
:10580000069B984202D07068FFF758FD0DA970689A
:10581000FFF748FE0D9B089009930DA93068FFF72C
:1058200041FE0D9B0B900493079B012B1CD1049B05
:105830005D1E01235B420A9300242700049B03940E
:105840000593059B002B13D1039B002B23D1214BE8
:10585000069A0E209A4200D01F480FB0F0BD0723D1
:1058600009931E4B0893D8E7012300250A93E3E729
:105870000B9B09995A190123089800931FF040F8CF
:10588000002816D1039B002B19D1079B002B09D1AF
:105890002F00049B5C1E049B0134E21B934212D137
:1058A0003068DAE7079B2C00012B0AD001232F0078
:1058B00003930A9BED18059B013B0593C1E72C0060
:1058C000F7E7039FE7E70B9B0698D9191FF037F816
:1058D000C3E7C04640FD0200B8CF0200CB41030041
:1058E000F0B589B0049008680D000AF099FB040037
:1058F00068680AF095FB0700A04202D06868FFF7CD
:10590000DDFC06A92868FFF7CDFD060007A9686839
:10591000FFF7C8FD069A0590B3180393049B340063
:10592000022B19D9AB681E498B4206D001213800E1
:105930000091310008F0F0FB0400049B032B0BD016
:10594000EB68174A934207D00122310000923800D9
:10595000069A08F0E1FB03900025079BAB4212D1A9
:10596000039B2000191B1DF02AF90130450001207E
:10597000284309B0F0BD0599200024F04CFE002812
:1059800008D101353400079A039BA6189E42F2D92C
:105990006D00ECE720001DF0FAF80600F2E7C046C3
:1059A00010C30200F0B58BB00E00039207000AF09E
:1059B00037FB040030000AF033FB0500A04202D0A0
:1059C0003000FFF77BFC05A93800FFF76BFD06A947
:1059D00004003000FFF766FD069B0200002B05D196
:1059E0001A491B4822F0E5FA10F05BFA19498D427A
:1059F00027D10E210791089109910399012922D1FC
:105A0000079703992000009105991EF079FF00285F
:105A100011D0071B3A00210028001EF090FF059BC3
:105A20000699DA1B521AC9190790611828000896BE
:105A30001EF085FF099007A9032008F05BFD0BB05D
:105A4000F0BD0549D6E70997DBE7C046A74103004B
:105A50005817030040FD0200B8CF020010B5010046
:105A600001481FF07EF810BDDF2B020010B50100C9
:105A700001481FF076F810BDF12B0200F7B50600C3
:105A8000080001A9FFF70EFD019B0500002B01D1C5
:105A90001348FEBD134B04009E4207D10027019A14
:105AA000631B9A4211D8002F07D1F1E70E4B9E429B
:105AB000F4D0019A631B9A4201D80C48E9E7207898
:105AC000B04701340028F4D1E2E72078FCF71AFD52
:105AD000002803D02078B047071ED9D00134DEE774
